:020000040800F2
:1000000000000120CD0B00081D0C00081D0C00088D
:100010001D0C00081D0C00081D0C0008000000004D
:100020000000000000000000000000001D0C00089F
:100030001D0C0008000000001D0C00081D0C00082D
:100040001D0C00081D0C00081D0C00081D0C0008EC
:100050001D0C00081D0C00081D0C00081D0C0008DC
:100060001D0C00081D0C00081D0C0008F90A0008F2
:100070001D0C00081D0C00081D0C00081D0C0008BC
:100080001D0C00081D0C00081D0C000800000000DD
:100090000000000000000000000000001D0C00082F
:1000A0001D0C00081D0C00081D0C00081D0C00088C
:1000B0001D0C00081D0C00081D0C00081D0C00087C
:1000C0001D0C00081D0C00081D0C00081D0C00086C
:1000D0001D0C00081D0C00081D0C0008000000008D
:1000E0001D0C00081D0C00081D0C0008000000007D
:1000F0000000000000000000000000001D0C0008CF
:10010000000000001D0C00081D0C00081D0C00085C
:1001100000000000000000000000000000000000DF
:10012000ED0A00081D0C00081D0C00081D0C00083D
:100130001D0C00080000000000000000000000008E
:100140000000000000000000000000001D0C00087E
:100150001D0C00081D0C00081D0C00081D0C0008DB
:100160001D0C00081D0C000800000000000000002D
:10017000000000000000000000000000000000007F
:10018000000000001D0C000800000000000000003E
:040190001D0C00083A
:1001940010B5054C237833B9044B13B10448AFF3BD
:1001A40000800123237010BD88000020000000009F
:1001B400680C000808B5034B1BB103490348AFF3AF
:1001C400008008BD000000008C000020680C0008BE
:1001D40080B483B000AF0346FB71FB79002B0CD0D5
:1001E400012B15D1404B4FF400621A603F4B1B6842
:1001F4003E4A43F4001313600BE03D4B4FF0807212
:100204001A603A4B1B68394A43F48003136000E0D8
:1002140000BFFA7937491346DB009B1A9B000B4455
:1002240008331B681968FA7932481346DB009B1AB5
:100234009B00034408331B6821F001021A6000BFCD
:10024400FA792C491346DB009B1A9B000B440833B4
:100254001B681B68012BF3D0FA7926491346DB008F
:100264009B1A9B000B4408331B681968FA792148D0
:100274001346DB009B1A9B00034408331B6841F0C0
:1002840010021A60FA791B491346DB009B1A9B0083
:100294000B4408331B681968FA7916481346DB00C7
:1002A4009B1A9B00034408331B6841F400721A60D4
:1002B400FA7910491346DB009B1A9B000B44083360
:1002C4001B681968FA790B481346DB009B1A9B00DC
:1002D400034408331B6841F480621A6000BF0C3782
:1002E400BD465DF8047B704700E100E03038024011
:1002F40004E100E00000002090B484B000AFB960D5
:100304007A601A460346FB731346BB73FA7B95491E
:100314001346DB009B1A9B000B4410331B68BA681E
:100324001A60FA7B8F491346DB009B1A9B000B442F
:1003340014331B687A681A60FA7B8A491346DB0017
:100344009B1A9B000B4408331B681968FA7B854889
:100354001346DB009B1A9B00034408331B6841F4DB
:1003640040321A60FA7B7F491346DB009B1A9B00DC
:100374000B4408331B681968FA7B7A481346DB0080
:100384009B1A9B00034408331B6821F020021A6067
:10039400FA7B74491346DB009B1A9B000B440C3315
:1003A4001B68BA7B1A6097F82430002B1BD1FA7BA8
:1003B4006C491346DB009B1A9B000B4408331B68F3
:1003C400196897F824309B01DB431C46FA7B654887
:1003D4001346DB009B1A9B00034408331B6801EAA5
:1003E40004021A6019E0FA7B5E491346DB009B1A8B
:1003F4009B000B4408331B68196897F824309B0151
:100404001C46FA7B57481346DB009B1A9B000344A7
:1004140008331B6841EA04021A603B7E002B34D186
:10042400FA7B50491346DB009B1A9B000B440833AC
:100434001B6819683B7E5B03DB431C46FA7B494817
:100444001346DB009B1A9B00034408331B6801EA34
:1004540004021A60FA7B43491346DB009B1A9B0093
:100464000B4408331B6819683B7EDB02DB431C46E4
:10047400FA7B3C481346DB009B1A9B000344083379
:100484001B6801EA04021A6031E0FA7B354913461D
:10049400DB009B1A9B000B4408331B6819683B7EE6
:1004A4005B031C46FA7B2F481346DB009B1A9B0018
:1004B400034408331B6841EA04021A60FA7B2949A1
:1004C4001346DB009B1A9B000B4408331B68196816
:1004D4003B7EDB021C46FA7B22481346DB009B1A58
:1004E4009B00034408331B6841EA04021A6097F82E
:1004F4002030002B38D1FA7B1A491346DB009B1AB3
:100504009B000B4408331B68196897F82030DB05FF
:10051400DB431C46FA7B13481346DB009B1A9B0003
:10052400034408331B6801EA04021A60FA7B0D498C
:100534001346DB009B1A9B000B4408331B681968A5
:1005440097F820305B05DB431C46FA7B05481346CD
:10055400DB009B1A9B00034408331B6801EA040276
:100564001A6035E000000020FA7B41491346DB00A5
:100574009B1A9B000B4408331B68196897F82030BA
:10058400DB051C46FA7B3A481346DB009B1A9B00AA
:10059400034408331B6841EA04021A60FA7B3449B5
:1005A4001346DB009B1A9B000B4408331B68196835
:1005B40097F820305B051C46FA7B2D481346DB0078
:1005C4009B1A9B00034408331B6841EA04021A6027
:1005D4003B7F002B2ED0012B43D1FA7B24491346B9
:1005E400DB009B1A9B000B4418331B681968FA7BC9
:1005F4001F481346DB009B1A9B00034418331B68F7
:1006040041F004021A60FA7B19491346DB009B1A75
:100614009B000B4418331B681968FA7B1448134673
:10062400DB009B1A9B00034418331B6841F0030250
:100634001A6017E0FA7B0E491346DB009B1A9B00F5
:100644000B4418331B681968FA7B09481346DB000E
:100654009B1A9B00034418331B6821F004021A60A0
:1006640000E000BF00BF1037BD4690BC704700BF1C
:100674000000002080B483B000AF0346FB71FA7918
:1006840044491346DB009B1A9B000B4404331B684C
:100694001968FA793F481346DB009B1A9B00034410
:1006A40004331B6841F001021A60FA793949134690
:1006B400DB009B1A9B000B4404331B681968FA790E
:1006C40034481346DB009B1A9B00034404331B6825
:1006D40041F004021A60FA792E491346DB009B1A92
:1006E4009B000B4404331B681968FA7929481346A4
:1006F400DB009B1A9B00034404331B6841F008028F
:100704001A60FA7923491346DB009B1A9B000B44B9
:1007140004331B681968FA791E481346DB009B1AD8
:100724009B00034404331B6841F010021A60FA79F9
:1007340018491346DB009B1A9B000B4404331B68C7
:100744001968FA7913481346DB009B1A9B0003448B
:1007540004331B6841F020021A60FA790D491346EC
:10076400DB009B1A9B000B4408331B681968FA7959
:1007740008481346DB009B1A9B00034408331B689C
:1007840041F001021A6000BF0C37BD465DF8047BDE
:10079400704700BF0000002080B485B000AF03465E
:1007A400FB710023FB60FA790B491346DB009B1AAB
:1007B4009B000B441B681B6803F02003002B02D032
:1007C4000123FB6001E00023FB60FB68184614373B
:1007D400BD465DF8047B70470000002080B483B000
:1007E40000AF0346FB71084B1B68FA79012101FA3B
:1007F40002F21146044A0B43136000BF0C37BD4696
:100804005DF8047B704700BF3038024090B482B07A
:1008140000AF0446084611461A462346FB710346B8
:10082400BB710B467B7113463B71FA7956491346EB
:100834009B001344DB000B441B681968BB795B0005
:10084400032202FA03F3DB431C46FA794E481346AB
:100854009B001344DB0003441B6801EA04021A6092
:10086400FA79494913469B001344DB000B441B6887
:1008740019687A79BB795B0002FA03F31C46FA79AA
:10088400414813469B001344DB0003441B6841EAC0
:1008940004021A60FA793C4913469B001344DB00B6
:1008A4000B4404331B681968BB79012202FA03F371
:1008B400DB431C46FA79344813469B001344DB009F
:1008C400034404331B6801EA04021A60FA792E49CE
:1008D40013469B001344DB000B4404331B68196864
:1008E4003B7903F00102BB7902FA03F31C46FA795F
:1008F400254813469B001344DB00034404331B6860
:1009040041EA04021A60FA791F4913469B00134412
:10091400DB000B440C331B681968BB795B000322B2
:1009240002FA03F3DB431C46FA79174813469B008B
:100934001344DB0003440C331B6801EA04021A600D
:10094400FA79114913469B001344DB000B440C3322
:100954001B6819683B795B1003F00302BB795B00E9
:1009640002FA03F31C46FA79074813469B00134422
:10097400DB0003440C331B6841EA04021A6000BF25
:100984000837BD4690BC70473800002090B484B04E
:1009940000AF0346FB710B46BB7113467B71FA79BA
:1009A4002C4913469B001344DB000B441B681B6853
:1009B400BA795200032101FA02F21A40BB795B00B2
:1009C40022FA03F3012B3DD17B79002B1BD0FA795A
:1009D400204913469B001344DB000B4414331B686B
:1009E4001968BB79012202FA03F31C46FA79194803
:1009F40013469B001344DB00034414331B6841EA91
:100A040004021A601BE0FA79124913469B0013444E
:100A1400DB000B4414331B681968BB79012202FA0A
:100A240003F3DB431C46FA790A4813469B0013443C
:100A3400DB00034414331B6801EA04021A60002338
:100A4400FB7301E00123FB73FB7B18461037BD46A3
:100A540090BC70473800002080B584B004AF1F4BB1
:100A640000221A7018E01D4B1B780133642202FB2C
:100A740003F11A4B1B781A46194B43F82210174BF3
:100A84001B781946174B002243F82120134B1B787F
:100A94000133DAB2114B1A70104B1B78632BE2D975
:100AA4000020FFF79BFE0023012200210020FFF716
:100AB400ADFE0020FFF78CFB022303930123029376
:100AC40001230193022300936423064A044900206E
:100AD400FFF712FC0020FFF7CDFDFEE7CA0300205C
:100AE40038020020A400002080B500AF00F008F810
:100AF40000BF80BD80B500AF00F002F800BF80BD2C
:100B040080B500AF224B00221A701BE0204B1B78EB
:100B14001A46204B53F822201D4B1B7819461E4BB6
:100B240053F821309A4203D11C4B01221A7003E07E
:100B34001A4B00221A7009E0154B1B780133DAB204
:100B4400134B1A70124B1B78632BDFD90020FFF76D
:100B540023FE0346DAB2124B1A70114B1B78002B9A
:100B640005D00E4B1B78002B01D0012300E000239D
:100B7400012B05D1012200210020FFF707FF04E02B
:100B8400002200210020FFF701FF00BF80BD00BF4D
:100B9400CA03002038020020A4000020CB03002058
:100BA400C903002080B400AF064BD3F88830054A4F
:100BB40043F47003C2F8883000BFBD465DF8047B7F
:100BC400704700BF00ED00E0DFF834D00D480E4957
:100BD4000E4A002302E0D458C4500433C4188C4293
:100BE400F9D30B4A0B4C002301E013600432A242F8
:100BF400FBD3FFF7D7FF00F011F8FFF72DFF704785
:100C0400000001200000002088000020880C00085B
:100C140088000020CC030020FEE7000070B50D4DD5
:100C24000D4C641BA4100026A64209D10B4D0C4C9C
:100C340000F018F8641BA4100026A64205D170BD6C
:100C440055F8043B98470136EEE755F8043B9847BE
:100C54000136F2E7800C0008800C0008800C0008C4
:100C6400840C0008F8B500BFF8BC08BC9E46704769
:0C0C7400F8B500BFF8BC08BC9E467047F5
:040C8000B9010008AE
:040C840095010008CE
:100C88000064024080640240106402401464024020
:100C9800186402401C640240246402400060024060
:100CA80080600240106002401460024018600240F8
:100CB8001C60024024600240000002400400024020
:100CC800080002400C0002401000024014000240DC
:100CD800180002401C00024020000240240002408C
:100CE8000004024004040240080402400C040240CC
:100CF8001004024014040240180402401C0402407C
:080D0800200402402404024013
:0400000508000BCD17
:00000001FF
